:100000000C945D000C948C050C9465050C94850093
:100010000C9485000C9485000C9485000C9485004C
:100020000C9485000C9485000C9485000C9485003C
:100030000C9485000C9485000C9485000C9485002C
:100040000C941B050C9485000C94E9040C94C304D7
:100050000C9485000C9485000C9485000C9485000C
:100060000C94B3050C9485000000000024002700C8
:100070002A0000000000250028002B0004040404CE
:100080000404040402020202020203030303030342
:10009000010204081020408001020408102001021F
:1000A00004081020000000080002010000030407FB
:1000B0000000000000000000D20611241FBECFEF98
:1000C000D8E0DEBFCDBF11E0A0E0B1E0E4EFF3E1A6
:1000D00002C005900D92A434B107D9F722E0A4E440
:1000E000B1E001C01D92AE3EB207E1F710E0CDE5F0
:1000F000D0E004C02197FE010E94F209CC35D1075F
:10010000C9F70E941A070C94F8090C94000090E0BB
:10011000FC01EC55FF4F2491FC01E057FF4F349157
:10012000FC01E458FF4FE491EE23B1F0222339F0B3
:100130002330E9F090F4213001F1223011F1F0E0A8
:10014000EE0FFF1FEE58FF4FA591B4918FB7F894B3
:10015000EC913E2B3C938FBF08952730A9F02830B7
:10016000C9F0243061F7809180008F7D03C08091B9
:1001700080008F7780938000E2CF84B58F7784BD35
:10018000DECF84B58F7DFBCF8091B0008F778093D9
:10019000B000D5CF8091B0008F7DF9CF80E48093FF
:1001A0007C0080917A00806480937A0080917A004C
:1001B00086FDFCCF80917800909179000895809120
:1001C0003102909132020097A9F580912F0290910F
:1001D00030020197C1F583E190E090933202809361
:1001E00031021092300210922F0280912D029091D4
:1001F0002E02019790932E0280932D0220912F02C0
:100200003091300244E1429FC001439F900D112480
:100210002091310230913202820F931FFC01EF5F77
:10022000FD4F20E20196883291056CF431813193C3
:100230002083F8CF1816190634F4019790933202F0
:1002400080933102D2CF089580912F029091300295
:1002500024E1289FF001299FF00D112480913102A3
:1002600090913202E80FF91FEE5FFD4F80E29F018F
:10027000215032402732310524F4918191938083BB
:10028000F6CF089508950895AF92BF92CF92DF926E
:10029000EF92FF920F931F93CF93DF936C017B013B
:1002A0008B01040F151FEB015E01AE18BF08C017CC
:1002B000D10759F06991D601ED91FC910190F0813F
:1002C000E02DC6010995892B79F7C501DF91CF9102
:1002D0001F910F91FF90EF90DF90CF90BF90AF9064
:1002E0000895FC01538D448D252F30E0842F90E03C
:1002F000821B930B541710F0CF9608950197089521
:10030000FC01918D828D981761F0A28DAE0FBF2FE9
:10031000B11D5D968C91928D9F5F9F73928F90E03F
:1003200008958FEF9FEF0895FC01918D828D9817AE
:1003300031F0828DE80FF11D858D90E008958FEFEB
:100340009FEF0895FC01918D228D892F90E0805CB4
:100350009F4F821B91098F739927089589E392E03B
:100360000E94A20121E0892B09F420E0822F089548
:10037000FF920F931F93CF93DF9380E2F82EC1E09B
:10038000D0E004E110E089E392E00E94A201892B11
:1003900009F44CC089E392E00E94800120912D0273
:1003A00030912E02283231056CF5F901EF5FFD4FD7
:1003B000808380913102909132028331910599F4CA
:1003C00040912F0250913002452B81F4109232025D
:1003D00010923102D0933002C0932F0210932E025C
:1003E00000932D02D0CF843191056CF60196909345
:1003F0003202809331022F5F3F4F30932E022093C1
:100400002D02C1CFE1E0F2E0F19282E0E932F8079B
:10041000D9F710922E0210922D02109232021092F1
:1004200031021092300210922F02ADCFDF91CF91A6
:100430001F910F91FF9008950E94AE0181110C94BD
:10044000B8010895FC01A48DA80FB92FB11DA35ABE
:10045000BF4F2C91848D90E001968F739927848FE4
:10046000A689B7892C93A089B1898C918370806407
:100470008C93938D848D981306C00288F389E02DA8
:1004800080818F7D80830895EF92FF920F931F9359
:10049000CF93DF93EC0181E0888F9B8D8C8D981337
:1004A0001AC0E889F989808185FF15C09FB7F89443
:1004B000EE89FF896083E889F9898081837080648F
:1004C00080839FBF81E090E0DF91CF911F910F91DA
:1004D000FF90EF900895F62E0B8D10E00F5F1F4FE9
:1004E0000F731127E02E8C8D8E110CC00FB607FCF8
:1004F000FACFE889F989808185FFF5CFCE010E9486
:100500002202F1CFEB8DEC0FFD2FF11DE35AFF4FCF
:10051000F0829FB7F8940B8FEA89FB898081806213
:10052000CFCFCF93DF93EC01888D8823B9F0AA89D0
:10053000BB89E889F9898C9185FD03C0808186FD9E
:100540000DC00FB607FCF7CF8C9185FFF2CF8081ED
:1005500085FFEDCFCE010E942202E9CFDF91CF913E
:100560000895CF93DF9390E0FC01E057FF4F249173
:1005700084589F4FFC0184918823D1F090E0880F2C
:10058000991FFC01E859FF4FA591B491FC01EE5869
:10059000FF4FC591D491623071F49FB7F8943C91AC
:1005A000822F809583238C93E8812E2B28839FBFF5
:1005B000DF91CF9108958FB7F894EC912E2B2C9367
:1005C0008FBFF6CF3FB7F8948091F2019091F3017D
:1005D000A091F401B091F50126B5A89B05C02F3F6D
:1005E00019F00196A11DB11D3FBFBA2FA92F982F59
:1005F0008827BC01CD01620F711D811D911D42E054
:10060000660F771F881F991F4A95D1F708958F921B
:100610009F92AF92BF92CF92DF92EF92FF924B01E7
:100620005C010E94E2026B017C010E94E2026C19F3
:100630007D098E099F09683E734081059105A8F3E5
:1006400021E0821A9108A108B10888EEC80E83E063
:10065000D81EE11CF11C81149104A104B10429F7F6
:10066000FF90EF90DF90CF90BF90AF909F908F90D2
:1006700008950895089585ED8093BC008091BC0095
:1006800084FDFCCF1092FC01089520918401260F77
:100690003327331F21323105ECF42091FC01FC019A
:1006A00090E080E0243069F082E00895A091840118
:1006B0002191AC014C595E4FA40FB52FB11D2C9365
:1006C0000196861798F380918401680F60938401E6
:1006D00080E0089581E008950895E09100028091FE
:1006E000FF01E81730F4F0E0EC5BFE4F808190E012
:1006F00008958FEF9FEF0895909100028091FF0180
:100700002FEF3FEF981748F4E92FF0E0EC5BFE4F36
:10071000208130E09F5F90930002C901089580918D
:10072000FF0190910002891B990B0895CF92DF92EF
:10073000EF92FF920F931F93CF93DF937C01CB0136
:100740008A012091CB01222389F0EB016B01C40EB9
:10075000D51ECC15DD0569F06991D701ED91FC91AD
:100760000190F081E02DC7010995F3CF642F0E941D
:100770004503C801DF91CF911F910F91FF90EF903A
:10078000DF90CF900895CF93DF931F92CDB7DEB760
:1007900069832091CB012223F9F02091FD012032C1
:1007A00058F021E030E0FC013383228390E080E0C8
:1007B0000F90DF91CF9108958091FE01E82FF0E036
:1007C000E453FE4F998190838F5F8093FE01809365
:1007D000FD0181E090E0ECCF61E0CE0101960E9446
:1007E0004503F7CFCF93FC01C48121E02093CB01D7
:1007F000C093EC011092FE011092FD018385682BDD
:1008000086ED92E00E94C3039091FD01913208F0C1
:100810003FC08091FC018111FCCF82E08093FC01FC
:1008200081E08093FB018FEF8093CA011092C90190
:100830009093C801ACECB1E0E8EAF1E080E09813F5
:100840002FC01092A7018091A701CC0FC82BC09395
:10085000A7018091FA01813039F51092FA01809157
:10086000A7018093BB008091BC0083FDF8CF85EC8D
:100870008093BC008091FC018230E1F38091CA0139
:100880008F3F31F08091CA01803211F08091CA010E
:100890001092FE011092FD011092CB01CF910895AC
:1008A0002D9121938F5FCBCF85EEE2CF90E080E05A
:1008B00008950F931F93CF938C01C62F0E94F203CC
:1008C0006C2F6460C8010E94F2036C2F6B7FC8011B
:1008D0000E94F20383EC90E00197F1F7CF911F9112
:1008E0000F9108950F931F93CF93DF938C01D62F11
:1008F000C42F607F642B0E94590480E1D89FB0010F
:1009000011246C2BC801DF91CF911F910F910C9492
:100910005904CF93DF93CDB7DEB728970FB6F8947D
:10092000DEBF0FBECDBF98E0ECE0F1E0DE01119636
:1009300001900D929A95E1F79091EA02961710F4C2
:100940006FEF690F262F30E0220F331F41E050E098
:100950004C0F5D1F240F351FF9016081680F60681F
:1009600040E082EE92E028960FB6F894DEBF0FBE0C
:10097000CDBFDF91CF910C94720441E00E947204CC
:1009800081E090E008951F920F920FB60F9211240C
:100990002F933F934F935F936F937F938F939F9387
:1009A000AF93BF93EF93FF9389E392E00E942202FB
:1009B000FF91EF91BF91AF919F918F917F916F9137
:1009C0005F914F913F912F910F900FBE0F901F900D
:1009D00018951F920F920FB60F9211242F938F9399
:1009E0009F93EF93FF93E0914902F0914A02808137
:1009F000E0914F02F091500282FD1BC090818091E6
:100A000052028F5F8F7320915302821741F0E09161
:100A10005202F0E0E75CFD4F958F80935202FF9108
:100A2000EF919F918F912F910F900FBE0F901F907C
:100A300018958081F4CF1F920F920FB60F92112458
:100A40002F933F938F939F93AF93BF938091EE012A
:100A50009091EF01A091F001B091F1013091ED0181
:100A600023E0230F2D3758F50196A11DB11D2093CA
:100A7000ED018093EE019093EF01A093F001B0930C
:100A8000F1018091F2019091F301A091F401B091F4
:100A9000F5010196A11DB11D8093F2019093F30120
:100AA000A093F401B093F501BF91AF919F918F9105
:100AB0003F912F910F900FBE0F901F90189526E831
:100AC000230F0296A11DB11DD2CF1F920F920FB618
:100AD0000F9211242F933F934F935F936F937F93C4
:100AE0008F939F93AF93BF93EF93FF93E091020196
:100AF000F09103010995FF91EF91BF91AF919F9103
:100B00008F917F916F915F914F913F912F910F90B6
:100B10000FBE0F901F9018951F920F920FB60F9255
:100B200011242F933F934F935F936F937F938F93F2
:100B30009F93AF93BF93EF93FF93E0910001F091E8
:100B400001010995FF91EF91BF91AF919F918F9115
:100B50007F916F915F914F913F912F910F900FBEB9
:100B60000F901F9018951F920F920FB60F9211249D
:100B70002F933F934F935F936F937F938F939F93A5
:100B8000AF93BF93EF93FF938091B900887F803636
:100B900009F44AC0F0F5883209F4A7C018F580318D
:100BA00009F49BC0B8F4882309F4F9C0883009F42B
:100BB00094C0FF91EF91BF91AF919F918F917F91E1
:100BC0006F915F914F913F912F910F900FBE0F90BA
:100BD0001F901895883109F488C0803251F78093AE
:100BE000CA0114C0803409F49DC040F48033B9F3C5
:100BF0008833F9F68093CA0185ECB0C0803509F4DA
:100C000085C0883509F496C0883499F60E943B0364
:100C1000D0CF883909F48CC038F5883729F050F4E2
:100C2000883611F0803729F683E08093FC0110921A
:100C3000A60157C0883809F47BC0803919F0803884
:100C400009F0B7CF8091A601803208F071C0E09121
:100C5000A60181E08E0F8093A6018091BB00F0E099
:100C6000EA57FE4F80833DC0803B39F0E0F4803A84
:100C700009F479C0883A09F09CCF84E08093FC01A4
:100C80001092850110928401E091F801F091F90130
:100C900009958091840181110FC081E080938401C6
:100CA0001092640109C0803C09F4A6CF883C09F485
:100CB000A3CF883B09F07DCFE091850181E08E0FC5
:100CC00080938501F0E0EC59FE4F80818093BB005A
:100CD000909185018091840129C08091A701809322
:100CE000BB0085EC8093BC0064CF9091C9018091DA
:100CF000C801981758F5E091C90181E08E0F8093E3
:100D0000C901F0E0E855FE4F8081E9CFE091C901CB
:100D100081E08E0F8093C9018091BB00F0E0E8551F
:100D2000FE4F80839091C9018091C8019817C8F245
:100D300085E8D8CFE091C90181E08E0F8093C90189
:100D40008091BB00F0E0E855FE4F80838091FB016D
:100D500081115CCF81E08093FA0184EA8093BC002A
:100D60001092FC0126CF85EC8093BC001092FC0110
:100D70008091A601803230F4E091A601F0E0EA57BC
:100D8000FE4F10826091A60170E0E091F601F091B3
:100D9000F70186E891E009951092A6010ACF10921A
:100DA000CA0134CFE9E3F2E01382128288EE93E0C5
:100DB000A0E0B0E084839583A683B78328E131E087
:100DC0003183208325EC30E03587248724EC30E024
:100DD0003787268720EC30E0318B208B21EC30E008
:100DE000338B228B22EC30E0358B248B26EC30E0E9
:100DF000378B268B118E128E138E148EE6EDF2E059
:100E00001382128284839583A683B7838AE291E05A
:100E100091838083E2EEF2E0138212828CE391E010
:100E20009183808387E2848384E1818784E0828761
:100E300013860895789484B5826084BD84B58160FA
:100E400084BD85B5826085BD85B5816085BD809195
:100E50006E00816080936E0010928100809181000D
:100E60008260809381008091810081608093810005
:100E7000809180008160809380008091B1008460C7
:100E80008093B1008091B00081608093B000809128
:100E90007A00846080937A0080917A0082608093E7
:100EA0007A0080917A00816080937A0080917A0044
:100EB000806880937A001092C10010920002109214
:100EC000FF011092FE011092FD011092FC0181E0E1
:100ED0008093FB011092FA0182E10E94870083E176
:100EE0000E9487008091B9008E7F8093B900809125
:100EF000B9008D7F8093B90088E48093B80085E4C1
:100F00008093BC0082E491E09093F9018093F80112
:100F100083E491E09093F7018093F6011092E70249
:100F20008091EC02823018F098E09093E702809371
:100F3000EA0262E370E080E090E00E9407036091C3
:100F4000ED0282EE92E00E94F20368EE73E080E030
:100F500090E00E94070360E382EE92E00E94590451
:100F6000CBE4D6E4CE010197F1F760E382EE92E0A4
:100F70000E9459042197F1F760E382EE92E00E940B
:100F8000590483E592E00197F1F760E282EE92E086
:100F90000E9459046091E702606240E082EE92E0B4
:100FA0000E94720484E08093E80240E06CE082EEEC
:100FB00092E00E94720440E061E082EE92E00E94C2
:100FC0007204CBE3DFE1CE010197F1F782E0809379
:100FD000E90240E066E082EE92E00E94720440E0A6
:100FE00062E082EE92E00E9472042197F1F788E0BD
:100FF0008093ED0260E082EE92E00E94F20340E016
:1010000060E482EE92E00E947204C4E0D1E0699153
:1010100082EE92E00E94BD0481E0CC30D807B9F79F
:10102000E0914902F0914A0282E08083E09145021A
:10103000F09146021082E0914702F09148028FEC55
:10104000808310925102E0914D02F0914E0286E0B1
:101050008083E0914B02F0914C028081806180831B
:10106000E0914B02F0914C02808188608083E09196
:101070004B02F0914C02808180688083E0914B02AA
:10108000F0914C0280818F7D808310923502109206
:101090003602109237021092380289E292E0E1E0C3
:1010A000F2E020E221938E179F07E1F761E08DE0E7
:1010B0000E94B10262E082E00E94B10262E083E03D
:1010C0000E94B1028FED90E09093010180930001A6
:1010D000809169008C7F826080936900E89A84E245
:1010E00091E0909303018093020180916900837FD6
:1010F000886080936900E99A94E1592E23E1822E59
:10110000912C33E0632E712C809135029091360240
:10111000A0913702B09138020196A11DB11D8093B4
:10112000350290933602A0933702B0933802C091F3
:101130003102D0913202E0902B02F0902C0200910B
:10114000290210912A02C0902F02D0903002CE15B1
:10115000DF0519F40C151D05E1F0602F8E2D0E949E
:1011600089045E9CC0015F9C900D11248F5F9D4F90
:10117000080F191F41E0F801608182EE92E00E94A1
:101180007204D0932C02C0932B02D0922A02C092F8
:10119000290201E012E0B12CA12CF12CE12C6A2DE6
:1011A0008E2D0E948904CA14DB0409F092C0EC164B
:1011B000FD0609F08EC08091350290913602A09113
:1011C0003702B091380284309105A105B10508F0CD
:1011D0007CC060E082EE92E00E94BD04FFEFEF1A57
:1011E000FF0A84E1E816F104D1F60C5E1F4FE1E03E
:1011F000AE16B10409F065C00E94CE008C01909338
:10120000340280933302843191050CF088C0C331DD
:10121000D10509F071C0CD2809F072C010923202D8
:1012200010923102B0923002A0922F02F0922E0260
:10123000E0922D02809131029091320201969093BA
:1012400032028093310280912D0290912E020196FC
:1012500090932E0280932D020E94CE00081719074A
:10126000D9F3809131029091320297FF04C010921D
:1012700032021092310280913102909132024497F1
:1012800024F0909232028092310280912F0290914C
:10129000300297FF04C01092300210922F0280910A
:1012A0002F0290913002049724F0709230026092E5
:1012B0002F020E94AE01882309F426CF0E94B801B4
:1012C00023CFAA24A394B12C68CF0697A105B1051A
:1012D00050F441E0F801EE0DFF1D608182EE92E0D6
:1012E0000E9472047BCF1092350210923602109247
:1012F00037021092380272CFC431D1050CF09ACF68
:101300002196D0933202C093310280912D029091A8
:101310002E02019690932E0280932D028BCF8F5F29
:1013200091408797B0F4CA94CD2869F410923002A6
:1013300010922F0280912D0290912E02449790934B
:101340002E0280932D020E94CE0008171907D9F3B0
:1013500088CFC801895A92404D97A8F4CD2869F4E6
:10136000B0923002A0922F0280912D0290912E0215
:10137000449690932E0280932D020E94CE0008176F
:101380001907D9F36ECFC8018B579340879708F0A0
:1013900068CF2097A9F4CA94CD2861F490923202C4
:1013A000809231021092300210922F0290922E02FF
:1013B00080922D020E94CE0008171907D9F351CF51
:1013C0001C161D06BCF72197D0933202C093310240
:1013D00080912D0290912E02019790932E0280937E
:1013E0002D02E8CFEE0FFF1F0590F491E02D099438
:0413F000F894FFCF9F
:1013F40039033903101010101010101000004000B1
:1014040014005400000000004402440171019102E0
:10141400A2018001940100000000C3039603560456
:101424006C038F037C036D0300000000BD044401C2
:0414340056043A031D
:107E0000112484B714BE81FFF0D085E080938100F7
:107E100082E08093C00088E18093C10086E0809377
:107E2000C20080E18093C4008EE0C9D0259A86E02C
:107E300020E33CEF91E0309385002093840096BBD3
:107E4000B09BFECF1D9AA8958150A9F7CC24DD24C4
:107E500088248394B5E0AB2EA1E19A2EF3E0BF2EE7
:107E6000A2D0813461F49FD0082FAFD0023811F036
:107E7000013811F484E001C083E08DD089C08234E0
:107E800011F484E103C0853419F485E0A6D080C0E4
:107E9000853579F488D0E82EFF2485D0082F10E0AE
:107EA000102F00270E291F29000F111F8ED06801E7
:107EB0006FC0863521F484E090D080E0DECF843638
:107EC00009F040C070D06FD0082F6DD080E0C81688
:107ED00080E7D80618F4F601B7BEE895C0E0D1E017
:107EE00062D089930C17E1F7F0E0CF16F0E7DF06D8
:107EF00018F0F601B7BEE89568D007B600FCFDCFD4
:107F0000A601A0E0B1E02C9130E011968C91119780
:107F100090E0982F8827822B932B1296FA010C0160
:107F200087BEE89511244E5F5F4FF1E0A038BF0790
:107F300051F7F601A7BEE89507B600FCFDCF97BE46
:107F4000E89526C08437B1F42ED02DD0F82E2BD052
:107F50003CD0F601EF2C8F010F5F1F4F84911BD097
:107F6000EA94F801C1F70894C11CD11CFA94CF0C13
:107F7000D11C0EC0853739F428D08EE10CD085E9AC
:107F80000AD08FE07ACF813511F488E018D01DD067
:107F900080E101D065CF982F8091C00085FFFCCF94
:107FA0009093C60008958091C00087FFFCCF809118
:107FB000C00084FD01C0A8958091C6000895E0E648
:107FC000F0E098E1908380830895EDDF803219F02E
:107FD00088E0F5DFFFCF84E1DECF1F93182FE3DFCA
:107FE0001150E9F7F2DF1F91089580E0E8DFEE27F6
:047FF000FF270994CA
:027FFE00040479
:0400000300007E007B
:00000001FF
